{
  "contractName": "Blockchain",
  "abi": [
    {
      "inputs": [
        {
          "internalType": "address",
          "name": "",
          "type": "address"
        },
        {
          "internalType": "uint256",
          "name": "",
          "type": "uint256"
        }
      ],
      "name": "blocks",
      "outputs": [
        {
          "internalType": "string",
          "name": "data",
          "type": "string"
        },
        {
          "internalType": "string",
          "name": "signature",
          "type": "string"
        },
        {
          "internalType": "string",
          "name": "publicKey",
          "type": "string"
        },
        {
          "internalType": "bool",
          "name": "isVerified",
          "type": "bool"
        }
      ],
      "stateMutability": "view",
      "type": "function",
      "constant": true
    },
    {
      "inputs": [
        {
          "internalType": "string",
          "name": "data",
          "type": "string"
        },
        {
          "internalType": "string",
          "name": "signature",
          "type": "string"
        },
        {
          "internalType": "string",
          "name": "publicKey",
          "type": "string"
        }
      ],
      "name": "addBlock",
      "outputs": [],
      "stateMutability": "nonpayable",
      "type": "function"
    },
    {
      "inputs": [],
      "name": "getBlocks",
      "outputs": [
        {
          "components": [
            {
              "internalType": "string",
              "name": "data",
              "type": "string"
            },
            {
              "internalType": "string",
              "name": "signature",
              "type": "string"
            },
            {
              "internalType": "string",
              "name": "publicKey",
              "type": "string"
            },
            {
              "internalType": "bool",
              "name": "isVerified",
              "type": "bool"
            }
          ],
          "internalType": "struct Blockchain.Block[]",
          "name": "",
          "type": "tuple[]"
        }
      ],
      "stateMutability": "view",
      "type": "function",
      "constant": true
    },
    {
      "inputs": [
        {
          "internalType": "uint256",
          "name": "index",
          "type": "uint256"
        },
        {
          "internalType": "string",
          "name": "newData",
          "type": "string"
        }
      ],
      "name": "updateBlock",
      "outputs": [],
      "stateMutability": "nonpayable",
      "type": "function"
    }
  ],
  "bytecode": "0x608060405234801561001057600080fd5b50610d9f806100206000396000f3fe608060405234801561001057600080fd5b506004361061004c5760003560e01c80634f5b7dc214610051578063bd2c60171461006f578063c28f9d781461008b578063fd228f39146100be575b600080fd5b6100596100da565b6040516100669190610acd565b60405180910390f35b610089600480360381019061008491906108ef565b610346565b005b6100a560048036038101906100a0919061081c565b6103ec565b6040516100b59493929190610aef565b60405180910390f35b6100d860048036038101906100d39190610858565b6105de565b005b60606000803373ffffffffffffffffffffffffffffffffffffffff1673ffffffffffffffffffffffffffffffffffffffff168152602001908152602001600020805480602002602001604051908101604052809291908181526020016000905b8282101561033d578382906000526020600020906004020160405180608001604052908160008201805461016d90610c9a565b80601f016020809104026020016040519081016040528092919081815260200182805461019990610c9a565b80156101e65780601f106101bb576101008083540402835291602001916101e6565b820191906000526020600020905b8154815290600101906020018083116101c957829003601f168201915b505050505081526020016001820180546101ff90610c9a565b80601f016020809104026020016040519081016040528092919081815260200182805461022b90610c9a565b80156102785780601f1061024d57610100808354040283529160200191610278565b820191906000526020600020905b81548152906001019060200180831161025b57829003601f168201915b5050505050815260200160028201805461029190610c9a565b80601f01602080910402602001604051908101604052809291908181526020018280546102bd90610c9a565b801561030a5780601f106102df5761010080835404028352916020019161030a565b820191906000526020600020905b8154815290600101906020018083116102ed57829003601f168201915b505050505081526020016003820160009054906101000a900460ff1615151515815250508152602001906001019061013a565b50505050905090565b60008060003373ffffffffffffffffffffffffffffffffffffffff1673ffffffffffffffffffffffffffffffffffffffff16815260200190815260200160002083815481106103be577f4e487b7100000000000000000000000000000000000000000000000000000000600052603260045260246000fd5b90600052602060002090600402019050818160000190805190602001906103e69291906106e7565b50505050565b6000602052816000526040600020818154811061040857600080fd5b90600052602060002090600402016000915091505080600001805461042c90610c9a565b80601f016020809104026020016040519081016040528092919081815260200182805461045890610c9a565b80156104a55780601f1061047a576101008083540402835291602001916104a5565b820191906000526020600020905b81548152906001019060200180831161048857829003601f168201915b5050505050908060010180546104ba90610c9a565b80601f01602080910402602001604051908101604052809291908181526020018280546104e690610c9a565b80156105335780601f1061050857610100808354040283529160200191610533565b820191906000526020600020905b81548152906001019060200180831161051657829003601f168201915b50505050509080600201805461054890610c9a565b80601f016020809104026020016040519081016040528092919081815260200182805461057490610c9a565b80156105c15780601f10610596576101008083540402835291602001916105c1565b820191906000526020600020905b8154815290600101906020018083116105a457829003601f168201915b5050505050908060030160009054906101000a900460ff16905084565b6000803373ffffffffffffffffffffffffffffffffffffffff1673ffffffffffffffffffffffffffffffffffffffff168152602001908152602001600020604051806080016040528085815260200184815260200183815260200160011515815250908060018154018082558091505060019003906000526020600020906004020160009091909190915060008201518160000190805190602001906106859291906106e7565b5060208201518160010190805190602001906106a29291906106e7565b5060408201518160020190805190602001906106bf9291906106e7565b5060608201518160030160006101000a81548160ff0219169083151502179055505050505050565b8280546106f390610c9a565b90600052602060002090601f016020900481019282610715576000855561075c565b82601f1061072e57805160ff191683800117855561075c565b8280016001018555821561075c579182015b8281111561075b578251825591602001919060010190610740565b5b509050610769919061076d565b5090565b5b8082111561078657600081600090555060010161076e565b5090565b600061079d61079884610b7a565b610b49565b9050828152602081018484840111156107b557600080fd5b6107c0848285610c58565b509392505050565b6000813590506107d781610d3b565b92915050565b600082601f8301126107ee57600080fd5b81356107fe84826020860161078a565b91505092915050565b60008135905061081681610d52565b92915050565b6000806040838503121561082f57600080fd5b600061083d858286016107c8565b925050602061084e85828601610807565b9150509250929050565b60008060006060848603121561086d57600080fd5b600084013567ffffffffffffffff81111561088757600080fd5b610893868287016107dd565b935050602084013567ffffffffffffffff8111156108b057600080fd5b6108bc868287016107dd565b925050604084013567ffffffffffffffff8111156108d957600080fd5b6108e5868287016107dd565b9150509250925092565b6000806040838503121561090257600080fd5b600061091085828601610807565b925050602083013567ffffffffffffffff81111561092d57600080fd5b610939858286016107dd565b9150509250929050565b600061094f8383610a5c565b905092915050565b600061096282610bba565b61096c8185610bdd565b93508360208202850161097e85610baa565b8060005b858110156109ba578484038952815161099b8582610943565b94506109a683610bd0565b925060208a01995050600181019050610982565b50829750879550505050505092915050565b6109d581610c22565b82525050565b6109e481610c22565b82525050565b60006109f582610bc5565b6109ff8185610bee565b9350610a0f818560208601610c67565b610a1881610d2a565b840191505092915050565b6000610a2e82610bc5565b610a388185610bff565b9350610a48818560208601610c67565b610a5181610d2a565b840191505092915050565b60006080830160008301518482036000860152610a7982826109ea565b91505060208301518482036020860152610a9382826109ea565b91505060408301518482036040860152610aad82826109ea565b9150506060830151610ac260608601826109cc565b508091505092915050565b60006020820190508181036000830152610ae78184610957565b905092915050565b60006080820190508181036000830152610b098187610a23565b90508181036020830152610b1d8186610a23565b90508181036040830152610b318185610a23565b9050610b4060608301846109db565b95945050505050565b6000604051905081810181811067ffffffffffffffff82111715610b7057610b6f610cfb565b5b8060405250919050565b600067ffffffffffffffff821115610b9557610b94610cfb565b5b601f19601f8301169050602081019050919050565b6000819050602082019050919050565b600081519050919050565b600081519050919050565b6000602082019050919050565b600082825260208201905092915050565b600082825260208201905092915050565b600082825260208201905092915050565b6000610c1b82610c2e565b9050919050565b60008115159050919050565b600073ffffffffffffffffffffffffffffffffffffffff82169050919050565b6000819050919050565b82818337600083830152505050565b60005b83811015610c85578082015181840152602081019050610c6a565b83811115610c94576000848401525b50505050565b60006002820490506001821680610cb257607f821691505b60208210811415610cc657610cc5610ccc565b5b50919050565b7f4e487b7100000000000000000000000000000000000000000000000000000000600052602260045260246000fd5b7f4e487b7100000000000000000000000000000000000000000000000000000000600052604160045260246000fd5b6000601f19601f8301169050919050565b610d4481610c10565b8114610d4f57600080fd5b50565b610d5b81610c4e565b8114610d6657600080fd5b5056fea26469706673582212201d6cac4e6ed2a111ba54abd44572eadd741cb6f3d453177245f94b55d8d3ef8964736f6c63430008000033",
  "immutableReferences": {},
  "source": "// SPDX-License-Identifier: MIT\r\npragma solidity ^0.8.0;\r\n\r\ncontract Blockchain {\r\n    struct Block {\r\n        string data;\r\n        string signature;\r\n        string publicKey;\r\n        bool isVerified;\r\n    }\r\n\r\n    mapping(address => Block[]) public blocks;\r\n\r\n    function addBlock(string memory data, string memory signature, string memory publicKey) public {\r\n        blocks[msg.sender].push(Block(data, signature, publicKey, true));\r\n    }\r\n\r\n    function getBlocks() public view returns (Block[] memory) {\r\n        return blocks[msg.sender];\r\n    }\r\n\r\n    function updateBlock(uint index, string memory newData) public {\r\n        Block storage blockToUpdate = blocks[msg.sender][index];\r\n        blockToUpdate.data = newData;\r\n    }\r\n}",
  "sourcePath": "C:\\Users\\apurv\\VeriChain\\backend\\contracts\\Blockchain.sol",
  "compiler": {
    "name": "solc",
    "version": "0.8.0+commit.c7dfd78e.Emscripten.clang"
  },
  "schemaVersion": "3.4.16",
  "updatedAt": "2025-03-06T10:19:27.000Z",
  "networkType": "ethereum",
  "devdoc": {
    "kind": "dev",
    "methods": {},
    "version": 1
  },
  "userdoc": {
    "kind": "user",
    "methods": {},
    "version": 1
  }
}